{
  "_format": "hh-sol-artifact-1",
  "contractName": "ProductDetection",
  "sourceName": "contracts/ProductDetection.sol",
  "abi": [
    {
      "inputs": [],
      "stateMutability": "nonpayable",
      "type": "constructor"
    },
    {
      "anonymous": false,
      "inputs": [
        {
          "indexed": false,
          "internalType": "string",
          "name": "name",
          "type": "string"
        },
        {
          "indexed": false,
          "internalType": "address",
          "name": "_address",
          "type": "address"
        }
      ],
      "name": "ManufacturerCreated",
      "type": "event"
    },
    {
      "anonymous": false,
      "inputs": [
        {
          "indexed": false,
          "internalType": "bytes32",
          "name": "productHash",
          "type": "bytes32"
        },
        {
          "indexed": false,
          "internalType": "address",
          "name": "newOwner",
          "type": "address"
        }
      ],
      "name": "OwnerShipUpdated",
      "type": "event"
    },
    {
      "anonymous": false,
      "inputs": [
        {
          "indexed": false,
          "internalType": "bytes32",
          "name": "productHash",
          "type": "bytes32"
        },
        {
          "indexed": false,
          "internalType": "address",
          "name": "manufacturer",
          "type": "address"
        }
      ],
      "name": "ProductCreated",
      "type": "event"
    },
    {
      "inputs": [
        {
          "internalType": "address",
          "name": "_address",
          "type": "address"
        }
      ],
      "name": "checkManufacturer",
      "outputs": [
        {
          "components": [
            {
              "internalType": "bool",
              "name": "exists",
              "type": "bool"
            },
            {
              "internalType": "string",
              "name": "name",
              "type": "string"
            },
            {
              "internalType": "string",
              "name": "website",
              "type": "string"
            },
            {
              "internalType": "address",
              "name": "wallet_address",
              "type": "address"
            }
          ],
          "internalType": "struct ProductDetection.Manufacturer",
          "name": "",
          "type": "tuple"
        }
      ],
      "stateMutability": "view",
      "type": "function"
    },
    {
      "inputs": [
        {
          "internalType": "bytes32",
          "name": "_productHash",
          "type": "bytes32"
        }
      ],
      "name": "checkProduct",
      "outputs": [
        {
          "components": [
            {
              "internalType": "bool",
              "name": "exists",
              "type": "bool"
            },
            {
              "internalType": "bytes32",
              "name": "productHash",
              "type": "bytes32"
            },
            {
              "internalType": "string",
              "name": "name",
              "type": "string"
            },
            {
              "internalType": "string",
              "name": "model",
              "type": "string"
            },
            {
              "internalType": "uint256",
              "name": "price",
              "type": "uint256"
            },
            {
              "internalType": "address",
              "name": "manufacturer",
              "type": "address"
            },
            {
              "internalType": "address",
              "name": "curOwner",
              "type": "address"
            },
            {
              "internalType": "uint256",
              "name": "manufacturedTimestamp",
              "type": "uint256"
            },
            {
              "internalType": "string",
              "name": "expiryDate",
              "type": "string"
            },
            {
              "components": [
                {
                  "internalType": "address",
                  "name": "curOwner",
                  "type": "address"
                },
                {
                  "internalType": "uint256",
                  "name": "ownerShipUpdateTimeStamp",
                  "type": "uint256"
                }
              ],
              "internalType": "struct ProductDetection.ProductOwnerData[]",
              "name": "owners",
              "type": "tuple[]"
            }
          ],
          "internalType": "struct ProductDetection.Product",
          "name": "",
          "type": "tuple"
        }
      ],
      "stateMutability": "view",
      "type": "function"
    },
    {
      "inputs": [
        {
          "internalType": "string",
          "name": "_name",
          "type": "string"
        },
        {
          "internalType": "string",
          "name": "_website",
          "type": "string"
        },
        {
          "internalType": "address",
          "name": "_address",
          "type": "address"
        }
      ],
      "name": "createManufacturer",
      "outputs": [],
      "stateMutability": "nonpayable",
      "type": "function"
    },
    {
      "inputs": [
        {
          "internalType": "string",
          "name": "_name",
          "type": "string"
        },
        {
          "internalType": "string",
          "name": "_model",
          "type": "string"
        },
        {
          "internalType": "uint256",
          "name": "_price",
          "type": "uint256"
        },
        {
          "internalType": "string",
          "name": "_expiryDate",
          "type": "string"
        }
      ],
      "name": "createProduct",
      "outputs": [],
      "stateMutability": "nonpayable",
      "type": "function"
    },
    {
      "inputs": [],
      "name": "getAllManufacturers",
      "outputs": [
        {
          "internalType": "address[]",
          "name": "",
          "type": "address[]"
        }
      ],
      "stateMutability": "view",
      "type": "function"
    },
    {
      "inputs": [
        {
          "internalType": "address",
          "name": "_address",
          "type": "address"
        }
      ],
      "name": "getAllProductsOfManufacturer",
      "outputs": [
        {
          "internalType": "bytes32[]",
          "name": "",
          "type": "bytes32[]"
        }
      ],
      "stateMutability": "view",
      "type": "function"
    },
    {
      "inputs": [],
      "name": "i_owner",
      "outputs": [
        {
          "internalType": "address",
          "name": "",
          "type": "address"
        }
      ],
      "stateMutability": "view",
      "type": "function"
    },
    {
      "inputs": [
        {
          "internalType": "uint256",
          "name": "",
          "type": "uint256"
        }
      ],
      "name": "manufacturerList",
      "outputs": [
        {
          "internalType": "address",
          "name": "",
          "type": "address"
        }
      ],
      "stateMutability": "view",
      "type": "function"
    },
    {
      "inputs": [
        {
          "internalType": "address",
          "name": "",
          "type": "address"
        }
      ],
      "name": "manufacturers",
      "outputs": [
        {
          "internalType": "bool",
          "name": "exists",
          "type": "bool"
        },
        {
          "internalType": "string",
          "name": "name",
          "type": "string"
        },
        {
          "internalType": "string",
          "name": "website",
          "type": "string"
        },
        {
          "internalType": "address",
          "name": "wallet_address",
          "type": "address"
        }
      ],
      "stateMutability": "view",
      "type": "function"
    },
    {
      "inputs": [
        {
          "internalType": "bytes32",
          "name": "_productHash",
          "type": "bytes32"
        },
        {
          "internalType": "address",
          "name": "_address",
          "type": "address"
        }
      ],
      "name": "ownershipUpdate",
      "outputs": [],
      "stateMutability": "nonpayable",
      "type": "function"
    },
    {
      "inputs": [],
      "name": "productId",
      "outputs": [
        {
          "internalType": "uint256",
          "name": "",
          "type": "uint256"
        }
      ],
      "stateMutability": "view",
      "type": "function"
    },
    {
      "inputs": [
        {
          "internalType": "bytes32",
          "name": "",
          "type": "bytes32"
        }
      ],
      "name": "products",
      "outputs": [
        {
          "internalType": "bool",
          "name": "exists",
          "type": "bool"
        },
        {
          "internalType": "bytes32",
          "name": "productHash",
          "type": "bytes32"
        },
        {
          "internalType": "string",
          "name": "name",
          "type": "string"
        },
        {
          "internalType": "string",
          "name": "model",
          "type": "string"
        },
        {
          "internalType": "uint256",
          "name": "price",
          "type": "uint256"
        },
        {
          "internalType": "address",
          "name": "manufacturer",
          "type": "address"
        },
        {
          "internalType": "address",
          "name": "curOwner",
          "type": "address"
        },
        {
          "internalType": "uint256",
          "name": "manufacturedTimestamp",
          "type": "uint256"
        },
        {
          "internalType": "string",
          "name": "expiryDate",
          "type": "string"
        }
      ],
      "stateMutability": "view",
      "type": "function"
    },
    {
      "inputs": [
        {
          "internalType": "address",
          "name": "",
          "type": "address"
        },
        {
          "internalType": "uint256",
          "name": "",
          "type": "uint256"
        }
      ],
      "name": "productsList",
      "outputs": [
        {
          "internalType": "bytes32",
          "name": "",
          "type": "bytes32"
        }
      ],
      "stateMutability": "view",
      "type": "function"
    }
  ],
  "bytecode": "0x60a06040526000805534801561001457600080fd5b503373ffffffffffffffffffffffffffffffffffffffff1660808173ffffffffffffffffffffffffffffffffffffffff168152505060805161294661006b60003960008181610c21015261157f01526129466000f3fe608060405234801561001057600080fd5b50600436106100cf5760003560e01c80636c640a5e1161008c578063c5ce391111610066578063c5ce391114610253578063c74ced1c14610271578063dba6335f146102a1578063ddba07a4146102bf576100cf565b80636c640a5e146101e357806379054391146101ff578063bdb0bba414610237576100cf565b806312c89196146100d457806316cfecb6146100f05780632987c8f714610120578063382e3f921461015057806360715971146101805780636b5eb09c146101b0575b600080fd5b6100ee60048036038101906100e99190611798565b6102dd565b005b61010a600480360381019061010591906118bf565b610623565b6040516101179190611918565b60405180910390f35b61013a6004803603810190610135919061195f565b610654565b6040516101479190611c31565b60405180910390f35b61016a60048036038101906101659190611c53565b6109dc565b6040516101779190611c8f565b60405180910390f35b61019a60048036038101906101959190611caa565b610a1b565b6040516101a79190611d86565b60405180910390f35b6101ca60048036038101906101c59190611caa565b610ab2565b6040516101da9493929190611e01565b60405180910390f35b6101fd60048036038101906101f89190611e54565b610c1f565b005b6102196004803603810190610214919061195f565b610f7b565b60405161022e99989796959493929190611ef8565b60405180910390f35b610251600480360381019061024c9190611f9a565b6111ae565b005b61025b611389565b6040516102689190611fda565b60405180910390f35b61028b60048036038101906102869190611caa565b61138f565b604051610298919061205f565b60405180910390f35b6102a961157d565b6040516102b69190611c8f565b60405180910390f35b6102c76115a1565b6040516102d49190612130565b60405180910390f35b600260003373ffffffffffffffffffffffffffffffffffffffff1673ffffffffffffffffffffffffffffffffffffffff16815260200190815260200160002060000160009054906101000a900460ff1661036c576040517f08c379a0000000000000000000000000000000000000000000000000000000008152600401610363906121c4565b60405180910390fd5b6000805433426040516020016103849392919061224d565b604051602081830303815290604052805190602001209050600060036000838152602001908152602001600020905060018160000160006101000a81548160ff02191690831515021790555081816001018190555088888260020191826103ec9291906124d0565b5086868260030191826104009291906124d0565b50848160040181905550338160050160006101000a81548173ffffffffffffffffffffffffffffffffffffffff021916908373ffffffffffffffffffffffffffffffffffffffff160217905550338160060160006101000a81548173ffffffffffffffffffffffffffffffffffffffff021916908373ffffffffffffffffffffffffffffffffffffffff16021790555042816007018190555083838260080191826104ac9291906124d0565b50600060405180604001604052803373ffffffffffffffffffffffffffffffffffffffff168152602001836007015481525090508160090181908060018154018082558091505060019003906000526020600020906002020160009091909190915060008201518160000160006101000a81548173ffffffffffffffffffffffffffffffffffffffff021916908373ffffffffffffffffffffffffffffffffffffffff160217905550602082015181600101555050600460003373ffffffffffffffffffffffffffffffffffffffff1673ffffffffffffffffffffffffffffffffffffffff1681526020019081526020016000208390806001815401808255809150506001900390600052602060002001600090919091909150556000808154809291906105d9906125cf565b91905055507f1f3cd26d22ddb1ce87773315d1a9a80f4c46a7aaf7a8d3c23827523b8976f912833360405161060f929190612617565b60405180910390a150505050505050505050565b6004602052816000526040600020818154811061063f57600080fd5b90600052602060002001600091509150505481565b61065c61162f565b60036000838152602001908152602001600020604051806101400160405290816000820160009054906101000a900460ff16151515158152602001600182015481526020016002820180546106b0906122f3565b80601f01602080910402602001604051908101604052809291908181526020018280546106dc906122f3565b80156107295780601f106106fe57610100808354040283529160200191610729565b820191906000526020600020905b81548152906001019060200180831161070c57829003601f168201915b50505050508152602001600382018054610742906122f3565b80601f016020809104026020016040519081016040528092919081815260200182805461076e906122f3565b80156107bb5780601f10610790576101008083540402835291602001916107bb565b820191906000526020600020905b81548152906001019060200180831161079e57829003601f168201915b50505050508152602001600482015481526020016005820160009054906101000a900473ffffffffffffffffffffffffffffffffffffffff1673ffffffffffffffffffffffffffffffffffffffff1673ffffffffffffffffffffffffffffffffffffffff1681526020016006820160009054906101000a900473ffffffffffffffffffffffffffffffffffffffff1673ffffffffffffffffffffffffffffffffffffffff1673ffffffffffffffffffffffffffffffffffffffff16815260200160078201548152602001600882018054610894906122f3565b80601f01602080910402602001604051908101604052809291908181526020018280546108c0906122f3565b801561090d5780601f106108e25761010080835404028352916020019161090d565b820191906000526020600020905b8154815290600101906020018083116108f057829003601f168201915b5050505050815260200160098201805480602002602001604051908101604052809291908181526020016000905b828210156109cd57838290600052602060002090600202016040518060400160405290816000820160009054906101000a900473ffffffffffffffffffffffffffffffffffffffff1673ffffffffffffffffffffffffffffffffffffffff1673ffffffffffffffffffffffffffffffffffffffff1681526020016001820154815250508152602001906001019061093b565b50505050815250509050919050565b600181815481106109ec57600080fd5b906000526020600020016000915054906101000a900473ffffffffffffffffffffffffffffffffffffffff1681565b6060600460008373ffffffffffffffffffffffffffffffffffffffff1673ffffffffffffffffffffffffffffffffffffffff168152602001908152602001600020805480602002602001604051908101604052809291908181526020018280548015610aa657602002820191906000526020600020905b815481526020019060010190808311610a92575b50505050509050919050565b60026020528060005260406000206000915090508060000160009054906101000a900460ff1690806001018054610ae8906122f3565b80601f0160208091040260200160405190810160405280929190818152602001828054610b14906122f3565b8015610b615780601f10610b3657610100808354040283529160200191610b61565b820191906000526020600020905b815481529060010190602001808311610b4457829003601f168201915b505050505090806002018054610b76906122f3565b80601f0160208091040260200160405190810160405280929190818152602001828054610ba2906122f3565b8015610bef5780601f10610bc457610100808354040283529160200191610bef565b820191906000526020600020905b815481529060010190602001808311610bd257829003601f168201915b5050505050908060030160009054906101000a900473ffffffffffffffffffffffffffffffffffffffff16905084565b7f000000000000000000000000000000000000000000000000000000000000000073ffffffffffffffffffffffffffffffffffffffff163373ffffffffffffffffffffffffffffffffffffffff1614610cad576040517f08c379a0000000000000000000000000000000000000000000000000000000008152600401610ca4906126b2565b60405180910390fd5b80600260008273ffffffffffffffffffffffffffffffffffffffff1673ffffffffffffffffffffffffffffffffffffffff16815260200190815260200160002060000160009054906101000a900460ff1615610d3e576040517f08c379a0000000000000000000000000000000000000000000000000000000008152600401610d359061271e565b60405180910390fd5b604051806080016040528060011515815260200187878080601f016020809104026020016040519081016040528093929190818152602001838380828437600081840152601f19601f82011690508083019250505050505050815260200185858080601f016020809104026020016040519081016040528093929190818152602001838380828437600081840152601f19601f8201169050808301925050505050505081526020018373ffffffffffffffffffffffffffffffffffffffff16815250600260008473ffffffffffffffffffffffffffffffffffffffff1673ffffffffffffffffffffffffffffffffffffffff16815260200190815260200160002060008201518160000160006101000a81548160ff0219169083151502179055506020820151816001019081610e74919061273e565b506040820151816002019081610e8a919061273e565b5060608201518160030160006101000a81548173ffffffffffffffffffffffffffffffffffffffff021916908373ffffffffffffffffffffffffffffffffffffffff1602179055509050506001829080600181540180825580915050600190039060005260206000200160009091909190916101000a81548173ffffffffffffffffffffffffffffffffffffffff021916908373ffffffffffffffffffffffffffffffffffffffff1602179055507fb221316567f463674f49cbde1b8ee91580960ece70679c5a79bf92f916d8a028868684604051610f6b9392919061284c565b60405180910390a1505050505050565b60036020528060005260406000206000915090508060000160009054906101000a900460ff1690806001015490806002018054610fb7906122f3565b80601f0160208091040260200160405190810160405280929190818152602001828054610fe3906122f3565b80156110305780601f1061100557610100808354040283529160200191611030565b820191906000526020600020905b81548152906001019060200180831161101357829003601f168201915b505050505090806003018054611045906122f3565b80601f0160208091040260200160405190810160405280929190818152602001828054611071906122f3565b80156110be5780601f10611093576101008083540402835291602001916110be565b820191906000526020600020905b8154815290600101906020018083116110a157829003601f168201915b5050505050908060040154908060050160009054906101000a900473ffffffffffffffffffffffffffffffffffffffff16908060060160009054906101000a900473ffffffffffffffffffffffffffffffffffffffff169080600701549080600801805461112b906122f3565b80601f0160208091040260200160405190810160405280929190818152602001828054611157906122f3565b80156111a45780601f10611179576101008083540402835291602001916111a4565b820191906000526020600020905b81548152906001019060200180831161118757829003601f168201915b5050505050905089565b60006003600084815260200190815260200160002090503373ffffffffffffffffffffffffffffffffffffffff168160060160009054906101000a900473ffffffffffffffffffffffffffffffffffffffff1673ffffffffffffffffffffffffffffffffffffffff1614611257576040517f08c379a000000000000000000000000000000000000000000000000000000000815260040161124e906128f0565b60405180910390fd5b818160060160006101000a81548173ffffffffffffffffffffffffffffffffffffffff021916908373ffffffffffffffffffffffffffffffffffffffff160217905550600060405180604001604052808473ffffffffffffffffffffffffffffffffffffffff1681526020014281525090508160090181908060018154018082558091505060019003906000526020600020906002020160009091909190915060008201518160000160006101000a81548173ffffffffffffffffffffffffffffffffffffffff021916908373ffffffffffffffffffffffffffffffffffffffff1602179055506020820151816001015550507fb7ae722f2a8f3b12c15621ceca5081ae85c9e62346bf39fff7a005c120e1e31d848460405161137b929190612617565b60405180910390a150505050565b60005481565b6113976116b3565b600260008373ffffffffffffffffffffffffffffffffffffffff1673ffffffffffffffffffffffffffffffffffffffff1681526020019081526020016000206040518060800160405290816000820160009054906101000a900460ff1615151515815260200160018201805461140c906122f3565b80601f0160208091040260200160405190810160405280929190818152602001828054611438906122f3565b80156114855780601f1061145a57610100808354040283529160200191611485565b820191906000526020600020905b81548152906001019060200180831161146857829003601f168201915b5050505050815260200160028201805461149e906122f3565b80601f01602080910402602001604051908101604052809291908181526020018280546114ca906122f3565b80156115175780601f106114ec57610100808354040283529160200191611517565b820191906000526020600020905b8154815290600101906020018083116114fa57829003601f168201915b505050505081526020016003820160009054906101000a900473ffffffffffffffffffffffffffffffffffffffff1673ffffffffffffffffffffffffffffffffffffffff1673ffffffffffffffffffffffffffffffffffffffff16815250509050919050565b7f000000000000000000000000000000000000000000000000000000000000000081565b6060600180548060200260200160405190810160405280929190818152602001828054801561162557602002820191906000526020600020905b8160009054906101000a900473ffffffffffffffffffffffffffffffffffffffff1673ffffffffffffffffffffffffffffffffffffffff16815260200190600101908083116115db575b5050505050905090565b60405180610140016040528060001515815260200160008019168152602001606081526020016060815260200160008152602001600073ffffffffffffffffffffffffffffffffffffffff168152602001600073ffffffffffffffffffffffffffffffffffffffff1681526020016000815260200160608152602001606081525090565b60405180608001604052806000151581526020016060815260200160608152602001600073ffffffffffffffffffffffffffffffffffffffff1681525090565b600080fd5b600080fd5b600080fd5b600080fd5b600080fd5b60008083601f840112611722576117216116fd565b5b8235905067ffffffffffffffff81111561173f5761173e611702565b5b60208301915083600182028301111561175b5761175a611707565b5b9250929050565b6000819050919050565b61177581611762565b811461178057600080fd5b50565b6000813590506117928161176c565b92915050565b60008060008060008060006080888a0312156117b7576117b66116f3565b5b600088013567ffffffffffffffff8111156117d5576117d46116f8565b5b6117e18a828b0161170c565b9750975050602088013567ffffffffffffffff811115611804576118036116f8565b5b6118108a828b0161170c565b955095505060406118238a828b01611783565b935050606088013567ffffffffffffffff811115611844576118436116f8565b5b6118508a828b0161170c565b925092505092959891949750929550565b600073ffffffffffffffffffffffffffffffffffffffff82169050919050565b600061188c82611861565b9050919050565b61189c81611881565b81146118a757600080fd5b50565b6000813590506118b981611893565b92915050565b600080604083850312156118d6576118d56116f3565b5b60006118e4858286016118aa565b92505060206118f585828601611783565b9150509250929050565b6000819050919050565b611912816118ff565b82525050565b600060208201905061192d6000830184611909565b92915050565b61193c816118ff565b811461194757600080fd5b50565b60008135905061195981611933565b92915050565b600060208284031215611975576119746116f3565b5b60006119838482850161194a565b91505092915050565b60008115159050919050565b6119a18161198c565b82525050565b6119b0816118ff565b82525050565b600081519050919050565b600082825260208201905092915050565b60005b838110156119f05780820151818401526020810190506119d5565b60008484015250505050565b6000601f19601f8301169050919050565b6000611a18826119b6565b611a2281856119c1565b9350611a328185602086016119d2565b611a3b816119fc565b840191505092915050565b611a4f81611762565b82525050565b611a5e81611881565b82525050565b600081519050919050565b600082825260208201905092915050565b6000819050602082019050919050565b604082016000820151611aa66000850182611a55565b506020820151611ab96020850182611a46565b50505050565b6000611acb8383611a90565b60408301905092915050565b6000602082019050919050565b6000611aef82611a64565b611af98185611a6f565b9350611b0483611a80565b8060005b83811015611b35578151611b1c8882611abf565b9750611b2783611ad7565b925050600181019050611b08565b5085935050505092915050565b600061014083016000830151611b5b6000860182611998565b506020830151611b6e60208601826119a7565b5060408301518482036040860152611b868282611a0d565b91505060608301518482036060860152611ba08282611a0d565b9150506080830151611bb56080860182611a46565b5060a0830151611bc860a0860182611a55565b5060c0830151611bdb60c0860182611a55565b5060e0830151611bee60e0860182611a46565b50610100830151848203610100860152611c088282611a0d565b915050610120830151848203610120860152611c248282611ae4565b9150508091505092915050565b60006020820190508181036000830152611c4b8184611b42565b905092915050565b600060208284031215611c6957611c686116f3565b5b6000611c7784828501611783565b91505092915050565b611c8981611881565b82525050565b6000602082019050611ca46000830184611c80565b92915050565b600060208284031215611cc057611cbf6116f3565b5b6000611cce848285016118aa565b91505092915050565b600081519050919050565b600082825260208201905092915050565b6000819050602082019050919050565b6000611d0f83836119a7565b60208301905092915050565b6000602082019050919050565b6000611d3382611cd7565b611d3d8185611ce2565b9350611d4883611cf3565b8060005b83811015611d79578151611d608882611d03565b9750611d6b83611d1b565b925050600181019050611d4c565b5085935050505092915050565b60006020820190508181036000830152611da08184611d28565b905092915050565b611db18161198c565b82525050565b600082825260208201905092915050565b6000611dd3826119b6565b611ddd8185611db7565b9350611ded8185602086016119d2565b611df6816119fc565b840191505092915050565b6000608082019050611e166000830187611da8565b8181036020830152611e288186611dc8565b90508181036040830152611e3c8185611dc8565b9050611e4b6060830184611c80565b95945050505050565b600080600080600060608688031215611e7057611e6f6116f3565b5b600086013567ffffffffffffffff811115611e8e57611e8d6116f8565b5b611e9a8882890161170c565b9550955050602086013567ffffffffffffffff811115611ebd57611ebc6116f8565b5b611ec98882890161170c565b93509350506040611edc888289016118aa565b9150509295509295909350565b611ef281611762565b82525050565b600061012082019050611f0e600083018c611da8565b611f1b602083018b611909565b8181036040830152611f2d818a611dc8565b90508181036060830152611f418189611dc8565b9050611f506080830188611ee9565b611f5d60a0830187611c80565b611f6a60c0830186611c80565b611f7760e0830185611ee9565b818103610100830152611f8a8184611dc8565b90509a9950505050505050505050565b60008060408385031215611fb157611fb06116f3565b5b6000611fbf8582860161194a565b9250506020611fd0858286016118aa565b9150509250929050565b6000602082019050611fef6000830184611ee9565b92915050565b600060808301600083015161200d6000860182611998565b50602083015184820360208601526120258282611a0d565b9150506040830151848203604086015261203f8282611a0d565b91505060608301516120546060860182611a55565b508091505092915050565b600060208201905081810360008301526120798184611ff5565b905092915050565b600081519050919050565b600082825260208201905092915050565b6000819050602082019050919050565b60006120b98383611a55565b60208301905092915050565b6000602082019050919050565b60006120dd82612081565b6120e7818561208c565b93506120f28361209d565b8060005b8381101561212357815161210a88826120ad565b9750612115836120c5565b9250506001810190506120f6565b5085935050505092915050565b6000602082019050818103600083015261214a81846120d2565b905092915050565b7f4f6e6c79206d616e7566616374757265722069732061626c6520746f2063726560008201527f6174652070726f64756374732e00000000000000000000000000000000000000602082015250565b60006121ae602d83611db7565b91506121b982612152565b604082019050919050565b600060208201905081810360008301526121dd816121a1565b9050919050565b6000819050919050565b6121ff6121fa82611762565b6121e4565b82525050565b60008160601b9050919050565b600061221d82612205565b9050919050565b600061222f82612212565b9050919050565b61224761224282611881565b612224565b82525050565b600061225982866121ee565b6020820191506122698285612236565b60148201915061227982846121ee565b602082019150819050949350505050565b600082905092915050565b7f4e487b7100000000000000000000000000000000000000000000000000000000600052604160045260246000fd5b7f4e487b7100000000000000000000000000000000000000000000000000000000600052602260045260246000fd5b6000600282049050600182168061230b57607f821691505b60208210810361231e5761231d6122c4565b5b50919050565b60008190508160005260206000209050919050565b60006020601f8301049050919050565b600082821b905092915050565b6000600883026123867fffffffffffffffffffffffffffffffffffffffffffffffffffffffffffffffff82612349565b6123908683612349565b95508019841693508086168417925050509392505050565b6000819050919050565b60006123cd6123c86123c384611762565b6123a8565b611762565b9050919050565b6000819050919050565b6123e7836123b2565b6123fb6123f3826123d4565b848454612356565b825550505050565b600090565b612410612403565b61241b8184846123de565b505050565b5b8181101561243f57612434600082612408565b600181019050612421565b5050565b601f8211156124845761245581612324565b61245e84612339565b8101602085101561246d578190505b61248161247985612339565b830182612420565b50505b505050565b600082821c905092915050565b60006124a760001984600802612489565b1980831691505092915050565b60006124c08383612496565b9150826002028217905092915050565b6124da838361228a565b67ffffffffffffffff8111156124f3576124f2612295565b5b6124fd82546122f3565b612508828285612443565b6000601f8311600181146125375760008415612525578287013590505b61252f85826124b4565b865550612597565b601f19841661254586612324565b60005b8281101561256d57848901358255600182019150602085019450602081019050612548565b8683101561258a5784890135612586601f891682612496565b8355505b6001600288020188555050505b50505050505050565b7f4e487b7100000000000000000000000000000000000000000000000000000000600052601160045260246000fd5b60006125da82611762565b91507fffffffffffffffffffffffffffffffffffffffffffffffffffffffffffffffff820361260c5761260b6125a0565b5b600182019050919050565b600060408201905061262c6000830185611909565b6126396020830184611c80565b9392505050565b7f4f6e6c79206f776e65722063616e20637265617465206e6577206d616e75666160008201527f6374757265722e00000000000000000000000000000000000000000000000000602082015250565b600061269c602783611db7565b91506126a782612640565b604082019050919050565b600060208201905081810360008301526126cb8161268f565b9050919050565b7f4d616e75666163747572657220616c7265616479206578697374730000000000600082015250565b6000612708601b83611db7565b9150612713826126d2565b602082019050919050565b60006020820190508181036000830152612737816126fb565b9050919050565b612747826119b6565b67ffffffffffffffff8111156127605761275f612295565b5b61276a82546122f3565b612775828285612443565b600060209050601f8311600181146127a85760008415612796578287015190505b6127a085826124b4565b865550612808565b601f1984166127b686612324565b60005b828110156127de578489015182556001820191506020850194506020810190506127b9565b868310156127fb57848901516127f7601f891682612496565b8355505b6001600288020188555050505b505050505050565b82818337600083830152505050565b600061282b8385611db7565b9350612838838584612810565b612841836119fc565b840190509392505050565b6000604082019050818103600083015261286781858761281f565b90506128766020830184611c80565b949350505050565b7f4f6e6c79206f776e6572206f6620746869732070726f6475637420757064617460008201527f65206f776e6572736869702e0000000000000000000000000000000000000000602082015250565b60006128da602c83611db7565b91506128e58261287e565b604082019050919050565b60006020820190508181036000830152612909816128cd565b905091905056fea26469706673582212204ebba8f4fbc0e43017ae00b9bcb8a4412887fd0845a4588a2c5e6e753f7b7d0964736f6c63430008180033",
  "linkReferences": {},
  "deployedLinkReferences": {}
}